{
  "_format": "hh-sol-artifact-1",
  "contractName": "VariablesTypes",
  "sourceName": "contracts/VariablesTypes.sol",
  "abi": [
    {
      "inputs": [
        {
          "internalType": "string",
          "name": "_name",
          "type": "string"
        },
        {
          "internalType": "int256",
          "name": "_id",
          "type": "int256"
        },
        {
          "internalType": "uint256",
          "name": "_age",
          "type": "uint256"
        }
      ],
      "name": "Store",
      "outputs": [
        {
          "internalType": "string",
          "name": "",
          "type": "string"
        },
        {
          "internalType": "uint256[]",
          "name": "",
          "type": "uint256[]"
        }
      ],
      "stateMutability": "nonpayable",
      "type": "function"
    }
  ],
  "bytecode": "0x60806040526040518060400160405280600881526020017f476c616477656c6c0000000000000000000000000000000000000000000000008152506000908051906020019061004f92919061006e565b5060206001556233c3c760025534801561006857600080fd5b50610172565b82805461007a90610140565b90600052602060002090601f01602090048101928261009c57600085556100e3565b82601f106100b557805160ff19168380011785556100e3565b828001600101855582156100e3579182015b828111156100e25782518255916020019190600101906100c7565b5b5090506100f091906100f4565b5090565b5b8082111561010d5760008160009055506001016100f5565b5090565b7f4e487b7100000000000000000000000000000000000000000000000000000000600052602260045260246000fd5b6000600282049050600182168061015857607f821691505b6020821081141561016c5761016b610111565b5b50919050565b6106a0806101816000396000f3fe608060405234801561001057600080fd5b506004361061002b5760003560e01c8063d5a86d1c14610030575b600080fd5b61004a6004803603810190610045919061041d565b610061565b6040516100589291906105d2565b60405180910390f35b6060806004839080600181540180825580915050600190039060005260206000200160009091909190915055846008600086815260200190815260200160002090805190602001906100b49291906101b4565b506008600085815260200190815260200160002060048180546100d690610638565b80601f016020809104026020016040519081016040528092919081815260200182805461010290610638565b801561014f5780601f106101245761010080835404028352916020019161014f565b820191906000526020600020905b81548152906001019060200180831161013257829003601f168201915b50505050509150808054806020026020016040519081016040528092919081815260200182805480156101a157602002820191906000526020600020905b81548152602001906001019080831161018d575b5050505050905091509150935093915050565b8280546101c090610638565b90600052602060002090601f0160209004810192826101e25760008555610229565b82601f106101fb57805160ff1916838001178555610229565b82800160010185558215610229579182015b8281111561022857825182559160200191906001019061020d565b5b509050610236919061023a565b5090565b5b8082111561025357600081600090555060010161023b565b5090565b6000604051905090565b600080fd5b600080fd5b600080fd5b600080fd5b6000601f19601f8301169050919050565b7f4e487b7100000000000000000000000000000000000000000000000000000000600052604160045260246000fd5b6102be82610275565b810181811067ffffffffffffffff821117156102dd576102dc610286565b5b80604052505050565b60006102f0610257565b90506102fc82826102b5565b919050565b600067ffffffffffffffff82111561031c5761031b610286565b5b61032582610275565b9050602081019050919050565b82818337600083830152505050565b600061035461034f84610301565b6102e6565b9050828152602081018484840111156103705761036f610270565b5b61037b848285610332565b509392505050565b600082601f8301126103985761039761026b565b5b81356103a8848260208601610341565b91505092915050565b6000819050919050565b6103c4816103b1565b81146103cf57600080fd5b50565b6000813590506103e1816103bb565b92915050565b6000819050919050565b6103fa816103e7565b811461040557600080fd5b50565b600081359050610417816103f1565b92915050565b60008060006060848603121561043657610435610261565b5b600084013567ffffffffffffffff81111561045457610453610266565b5b61046086828701610383565b9350506020610471868287016103d2565b925050604061048286828701610408565b9150509250925092565b600081519050919050565b600082825260208201905092915050565b60005b838110156104c65780820151818401526020810190506104ab565b838111156104d5576000848401525b50505050565b60006104e68261048c565b6104f08185610497565b93506105008185602086016104a8565b61050981610275565b840191505092915050565b600081519050919050565b600082825260208201905092915050565b6000819050602082019050919050565b610549816103e7565b82525050565b600061055b8383610540565b60208301905092915050565b6000602082019050919050565b600061057f82610514565b610589818561051f565b935061059483610530565b8060005b838110156105c55781516105ac888261054f565b97506105b783610567565b925050600181019050610598565b5085935050505092915050565b600060408201905081810360008301526105ec81856104db565b905081810360208301526106008184610574565b90509392505050565b7f4e487b7100000000000000000000000000000000000000000000000000000000600052602260045260246000fd5b6000600282049050600182168061065057607f821691505b6020821081141561066457610663610609565b5b5091905056fea2646970667358221220e67a2b29a29fa6d1d0db5491917ac6a29e01621546a3e3b0041fff7cbd4bd8a064736f6c63430008090033",
  "linkReferences": {},
  "deployedLinkReferences": {}
}